:020000040800F2
:1000000018430020490100086B1000086310000825
:10001000671000089D0B00081D1600080000000076
:10002000000000000000000000000000BD110008FA
:100030003F0E0008000000006D100008A912000823
:100040006301000863010008630100086301000800
:1000500063010008630100086301000863010008F0
:10006000630100086301000863010008A10B000898
:1000700063010008630100086301000863010008D0
:1000800063010008630100086301000863010008C0
:1000900063010008630100086301000863010008B0
:1000A00063010008630100086301000863010008A0
:1000B0006301000863010008630100086301000890
:1000C0006301000863010008630100086301000880
:1000D0006301000863010008630100086301000870
:1000E0006301000863010008630100086301000860
:1000F0006301000863010008630100086301000850
:10010000630100086301000863010008630100083F
:10011000630100086301000863010008630100082F
:10012000630100086301000863010008630100081F
:10013000DFF810D000F0A0FB00480047A91F00081E
:10014000AFF3008018430020064880470648004768
:10015000FEE7FEE7FEE7FEE7FEE7FEE7FEE7FEE777
:10016000FEE7FEE7AD12000831010008F0B480EAB6
:100170000102D40F4200B2EB410F02D20246084600
:1001800011464A0042D0C30DDDB2C1F3C752AD1AC9
:10019000202D35DAC1F3160141F4000204B15242B8
:1001A000C5F1200602FA06F12A411044B3EBD05FF4
:1001B00023D0C4B1012DA0EBC35009DCF0BC4FF03B
:1001C000004202EAC352DBB200F5000000F0F2B9CF
:1001D000400000F1807000EBC350A0F1807040EA55
:1001E000D170490009E0490841EAC071A0EBC35051
:1001F00000F50000400800EBC350F0BC00F0D1B99E
:100200006142012202EB4101001BF6E7F0BC70479E
:1002100081F00041AAE780F00040A7E730B480EA0F
:10022000010202F0004530F0004221F0004013D0FE
:1002300090B1C30DD40DC2F31601C0F31600E41A39
:1002400041F4000140F400027D34914201D3641C6A
:1002500000E04900002C02DA30BC002070474FF467
:1002600000000023914201D3891A034340084FEA5A
:100270004101F7D151B1914202D14FF0004105E067
:1002800002D24FF0010101E06FF0010103EBC45015
:10029000284430BC00F085B92DE9FE4F81EA030403
:1002A00004F0004421F0004100944FF0000B23F0D3
:1002B000004350EA01045ED052EA03045BD0C3F36A
:1002C0000A54C1F30A552C44A4F2F3340194A0FB60
:1002D0000254C1F3130141F48011C3F3130343F437
:1002E000801301FB024400FB034E840A970A44EA90
:1002F000815447EA8357A4FB076802958D0A05FBE2
:1003000007854FEA932C04FB0C542705029D4FEA06
:10031000065847EA1637B5EB08056EEB070C870E53
:10032000920E47EA811742EA8312A7FB0201B6EB5D
:100330000B0164EB00042B0D43EA0C335E1844EB15
:100340001C50DA465146E7FB0201C5F313044FEA9D
:100350000B3343EA14534FEA0432019C43EA060389
:10036000A4F10C040294009CCDE900B400F05FF904
:1003700003B0BDE8F08F00200146F9E72DE9F04D0C
:1003800081EA030404F0004B21F0004514464FF0CD
:10039000000A23F0004150EA050220D054EA01028D
:1003A0001DD0C5F30A570246C5F31303C1F313006A
:1003B000C1F30A5640F4801543F48013A7EB0608F6
:1003C000101BD64608F2FD3873EB050002D308F186
:1003D000010801E092185B41B8F1000F03DA002038
:1003E0000146BDE8F08D00204FF48011064684469A
:1003F0000EE0171B73EB050705D3121B63EB050318
:1004000006434CEA010C49084FEA300092185B4160
:1004100050EA0107EDD152EA030012D082EA04004B
:1004200083EA0501084305D0101BAB4106D2012227
:10043000002306E000224FF0004302E06FF00102CB
:1004400053101AEB06004CEB085110EB0A0041EB7D
:100450000B01BDE8F04D00F0DBB8962300221146F9
:1004600000F0A8B820F00040C10DC0F3160040F421
:1004700000007F2901DA00207047962903DCC1F1D2
:100480009601C840704796398840704700F0004296
:1004900030F000400AD0C10D01F56071C0F31600C4
:1004A00042EA0151C208400711437047002001464B
:1004B000704701F0004330B421F0004150EA0102DE
:1004C00006D00A0DA2F56072C1F31301002A02DC06
:1004D00030BC00207047440F44EAC104C100E0185A
:1004E00030BC00EBC25000F05CB80000002801DB1B
:1004F000C0F10040002901DBC1F100418142704799
:10050000002801DBC0F10040002901DBC1F10041FE
:100510008842704730B50B46014600202022012456
:1005200009E021FA02F59D4205D303FA02F5491BC1
:1005300004FA02F52844151EA2F10102F1DC30BDD7
:100540002DE9F05F0546002092469B468846064608
:10055000814640241BE0284641464746224600F09B
:10056000ACF953465A46C01A914110D31146184669
:10057000224600F093F92D1A67EB01084F462246F8
:100580000120002100F08AF917EB00094E41201EDE
:10059000A4F10104DFDC484631462A464346BDE863
:1005A000F09F0029A8BF7047401C490008BF20F0F9
:1005B0000100704710B4B0FA80FC00FA0CF050EA69
:1005C000010404BF10BC704749B1CCF1200421FAEA
:1005D00004F411FA0CF118BF012121430843A3EBE5
:1005E0000C01CB1D4FEA00614FEA102042BF0020F2
:1005F00010BC704700EBC35010440029A4BF10BCCE
:100600007047401C490008BF20F0010010BC704733
:1006100010B5141E73F1000408DA401C41F100010A
:1006200092185B411A4301D120F0010010BD2DE961
:10063000F04D92469B4611B1B1FA81F202E0B0FA58
:1006400080F22032904600F029F904460F4640EA35
:100650000A0041EA0B0153465A46084313D011469B
:1006600053EA010019D0C8F14002504600F025F9C4
:1006700005460E4650465946424600F00FF90843DB
:1006800005D0012004E020463946BDE8F08D002069
:10069000054346EAE0762C4337430A986305E40AAB
:1006A000A0EB08000022FD0A44EA47540A3002D5B4
:1006B00000200146E9E7010510196941DDE9084517
:1006C00000196941BDE8F04DA2E72DE9FE4F8046D3
:1006D00081EA0300C00F0C46009021F0004123F096
:1006E0000045B8EB0200A94105D24046214690469C
:1006F0001C460B46024623F00040104347D0270D0E
:10070000C7F30A00C3F30A510290401A019040282F
:100710006BDAC3F3130040F4801B0098924620B1BB
:100720000023D2EB030A63EB0B0B01985946C0F18F
:100730004002504600F0B2F806460D465046594673
:10074000019A00F0CAF810EB08006141002487EA22
:10075000115284EAE7731A4340D0009A62B3019AB7
:10076000012A4FEA075215DC001B61EB02014FF032
:10077000004202EA0752CDE90042001C41F5801117
:1007800032462B46FFF753FF03B0BDE8F08F4046DB
:100790002146F9E7001B61EB0201001C41F58013C3
:1007A00000185B412018A2F5001747EB030140EA4F
:1007B000D570B6196D4111E06D084FEA360645EA6D
:1007C000C0754FEA0752001B61EB0201001C41F5A6
:1007D000801149084FEA30000019514132462B463A
:1007E00003B0BDE8F04FFFF713BF009801224000AF
:1007F0000023D0EB020263EBE073009821464FEA3E
:10080000E074B8EB000061EB0401E9E783F000431A
:100810005BE781F0004158E7C1F30A52C1F31301CD
:1008200040F2FF3341F480119A4202DA002001467F
:10083000704740F233439A42A2F2334202DC524202
:1008400000F03BB800F02AB830B5041E71F1000486
:1008500004DB4FF00044404264EB0101141E73F1CD
:10086000000405DB1C464FF00043524263EB0403D7
:10087000994208BF904230BD064C074D06E0E06843
:1008800040F0010394E8070098471034AC42F6D3D7
:10089000FFF752FC9C200008BC200008202A04DB43
:1008A000203A00FA02F1002070479140C2F1200383
:1008B00020FA03F3194390407047202A04DB203AC2
:1008C00021FA02F00021704721FA02F3D040C2F170
:1008D00020029140084319467047202A06DBCB17B7
:1008E000203A41FA02F043EAE07306E041FA02F3EB
:1008F000D040C2F12002914008431946704770B5BC
:100900008D1810F8014B14F0030201D110F8012BDF
:10091000231106D110F8013B03E010F8016B01F838
:10092000016B521EF9D1ABB110F8012B04F00C048D
:100930008A1A0C2C03D0A2EB84129B1C08E010F83E
:10094000014BA2EB0422F8E712F8014B01F8014B2E
:100950005B1EF9D5A942D4D3002070BD21B18268B5
:1009600042F00102826003E0826822F001028260AC
:10097000704721B1826842F48072826003E082682D
:1009800022F480728260704721B1826842F4801242
:10099000826003E0826822F4801282607047014620
:1009A00000208A6802F004020AB1012000E0002061
:1009B0007047014600208A6802F008020AB101204F
:1009C00000E000207047000030B502460020002300
:1009D00050680F4C20400D790C6844EA05242043F0
:1009E000506090680B4C2040D1E902542C434D7963
:1009F00044EA450420439060D06A20F470000C7CE7
:100A0000641EE4B2234340EA0350D06230BD0000CC
:100A1000FFFEF0FFFDF7F1FFF0B504460D460020A4
:100A20000021092D11DDE068A5F10A0606EB460755
:100A3000072606FA07F18843A5F10A0606EB4606E3
:100A400003FA06F10843E0600CE0206905EB450776
:100A5000072606FA07F1884305EB450603FA06F177
:100A600008432061072A0FDA606B561E06EB8607E3
:100A70001F2606FA07F18843561E06EB860605FA7E
:100A800006F10843606322E00D2A0FDA206BD61FBF
:100A900006EB86071F2606FA07F18843D61F06EBEA
:100AA000860605FA06F10843206310E0E06AA2F129
:100AB0000D0606EB86071F2606FA07F18843A2F10A
:100AC0000D0606EB860605FA06F10843E062F0BD66
:100AD000816841F0080181607047816841F004013C
:100AE0008160704708B50121102000F0EDFA022066
:100AF000ADF8000000208DF803006946014800F0C1
:100B000025FA08BD0010014010B5FFF7EBFF00F01B
:100B100001F810BD00B585B00121480200F0D4FAFB
:100B2000002000908DF804008DF805004FF4C020DF
:100B300002900020039001208DF8100069461648AD
:100B4000FFF742FF4FF4404000F092FA05230122E4
:100B50000B211148FFF760FF01210F48FFF709FF44
:100B600001210D48FFF7FAFE0B48FFF7B1FF00BF68
:100B70000948FFF71EFF0028FAD10748FFF7ADFF2D
:100B800000BF0548FFF70BFF0028FAD101210248FA
:100B9000FFF7FAFE05B000BD0024014000BFFEE7EC
:100BA00010B5022000F00AF9022000F047F810BD4D
:100BB00000B58BB00121084600F066FA154800F038
:100BC00057F8154800901548019000200290012028
:100BD00003900020049005904FF4807006908000F0
:100BE0000790202008900002099000200A90694692
:100BF000084800F002F90121064800F02DF8022013
:100C000000F00EF801220221024800F0EDF80BB0CE
:100C100000BD0000080002404C24014030100020BC
:100C200000F0805111B10349086001E002494860B9
:100C300070470000040402400000024000F08051B0
:100C400011B10349086001E00249486070470000A3
:100C5000040402400000024021B1026842F0010297
:100C6000026004E002684FF6FE731A4002607047AB
:100C700001684FF6FE721140016000210160416081
:100C80008160C1604B49884208D14A4908394968A6
:100C900041F00F01474A083A51608AE04549143152
:100CA000884208D143490839496841F0F001414A76
:100CB000083A51607DE03F492831884208D13D49DA
:100CC0000839496841F470613A4A083A516070E065
:100CD00038493C31884208D136490839496841F4DD
:100CE0007041344A083A516063E0324950318842D9
:100CF00008D130490839496841F470212D4A083A31
:100D0000516056E02B496431884208D1294908399D
:100D1000496841F47001274A083A516049E0254981
:100D20007831884208D123490839496841F0706117
:100D3000204A083A51603CE01F49884206D1011F11
:100D4000096841F00F01021F116032E01A491431A5
:100D5000884208D11849091F096841F0F001164A74
:100D6000121F116025E014492831884208D1124928
:100D7000091F096841F470610F4A121F116018E0E1
:100D80000D493C31884208D10B49091F096841F4DB
:100D90007041094A121F11600BE007495031884227
:100DA00007D10549091F096841F47021024A121F41
:100DB000116070470800024008040240014600200C
:100DC000002201F0805313B1054B1A6801E0054B76
:100DD0001A6802EA01030BB1012000E0002070470D
:100DE00000040240000002401AB103680B43036094
:100DF00002E003688B430360704710B5002202686D
:100E000047F6F0739A430C6A8B6823430C692343BB
:100E10004C6923438C692343CC6923434C6A2343A5
:100E20008C6A23431A430260CB6843600B6883607B
:100E30004B68C36010BD10B5FFF7BAFE10BD704718
:100E400008B50121042000F03FF94020ADF8000072
:100E500018208DF8030003208DF8020069461B4816
:100E600000F074F80121042000F02EF98020ADF884
:100E7000000018208DF8030003208DF80200694659
:100E8000124800F063F80121082000F01DF901204C
:100E9000ADF8000018208DF8030003208DF8020043
:100EA00069460B4800F052F80121082000F00CF9C7
:100EB0000220ADF8000018208DF8030003208DF803
:100EC00002006946024800F041F808BD00080140F0
:100ED000000C014010B5FFF7B3FF00F001F810BDA2
:100EE000F0B587B005240425032602270121084612
:100EF00000F0DAF81320ADF8040040F2CF20ADF88E
:100F000000000020ADF80600ADF802008DF80800E2
:100F10006946A00700F066FA6020ADF80C000120D9
:100F2000ADF80E000020ADF814000520ADF8120059
:100F300003A9800700F0F6F90821C80600F044FA7A
:100F40000121880700F0E2F907B0F0BD2DE9F0417A
:100F5000024600250026002000230024002791F8E7
:100F600003C00CF00F0591F803C00CF0100CBCF19D
:100F7000000F03D091F802C04CEA050591F800C0BB
:100F8000BCF1000F31D0146800202BE04FF0010CB1
:100F90000CFA00F3B1F800C00CEA03069E4220D11F
:100FA00083004FF00F0C0CFA03F7BC4305FA03FC67
:100FB0004CEA040491F803C0BCF1280F06D14FF0AD
:100FC000010C0CFA00FCC2F814C00AE091F803C04E
:100FD000BCF1480F05D14FF0010C0CFA00FCC2F82F
:100FE00010C0401C0828D1D31460B1F800C0BCF177
:100FF000FF0F34DD546800202EE000F1080C4FF0A4
:10100000010808FA0CF3B1F800C00CEA03069E428E
:1010100021D183004FF00F0C0CFA03F7BC4305FA03
:1010200003FC4CEA040491F803C0BCF1280F05D17D
:1010300000F1080C08FA0CF8C2F8148091F803C00B
:10104000BCF1480F07D100F1080C4FF0010808FA75
:101050000CF8C2F81080401C0828CED35460BDE8BC
:10106000F08100BFFEE700BFFEE770477047000059
:1010700001460020034A506820F440400843506075
:10108000704700000010024029B1064A526902432D
:10109000044B5A6104E0034A52698243014B5A618E
:1010A000704700000010024029B1064AD26902438D
:1010B000044BDA6104E0034AD2698243014BDA61EE
:1010C000704700000010024029B1064A92690243AD
:1010D000044B9A6104E0034A92698243014B9A618E
:1010E000704700000010024030B5002100220024AB
:1010F00000232D4D6D6805F00C0121B1042905D0A8
:10110000082923D105E0294D056022E0274D05601F
:101110001FE0254D6D6805F47012234D6D6805F4D0
:101120008034022505EB92421CB9214D55430560E0
:101130000BE01D4D6D6805F400351DB11C4D554388
:10114000056002E0194D5543056002E0174D05604A
:1011500000BF00BF144D6D6805F0F0010909154D81
:101160006B5C0568DD4045600F4D6D6805F4E0611E
:10117000090A104D6B5C4568DD4085600A4D6D685D
:1011800005F46051C90A0B4D6B5C4568DD40C560D4
:10119000054D6D6805F44041890B074D6B5CC568D2
:1011A000B5FBF3F5056130BD0010024000127A0076
:1011B00000093D000000002010000020704710B51D
:1011C00000F002F810BD00000CB500200190009066
:1011D0003348006840F480303149086000BF30482F
:1011E000006800F4003000900198401C01900098C5
:1011F00018B90198B0F5A06FF1D12948006800F442
:10120000003010B10120009001E000200090009813
:10121000012843D12348006840F0100021490860AC
:101220000846006820F0030008600846006840F0A7
:10123000020008601A48406819494860084640683A
:1012400048600846406840F480604860084640684E
:1012500020F47C1048600846406840F4E81048607C
:101260000846006840F08070086000BF0C480068C5
:1012700000F000700028F9D00948406820F0030011
:10128000074948600846406840F00200486000BFD7
:101290000348406800F00C000828F9D10CBD00009C
:1012A00000100240002002407047000010B51348B3
:1012B000006840F001001149086008464068104984
:1012C00008400E494860084600680E4908400B492E
:1012D00008600846006820F48020086008464068DE
:1012E00020F4FE0048604FF41F008860FFF767FF9E
:1012F0004FF000600449086010BD0000001002407B
:101300000000FFF8FFFFF6FE08ED00E021B10288C3
:1013100042F00102028004E002884FF6FE731A4098
:101320000280704770B5002400220023058C4FF620
:10133000EF7635400584028C8388048B48F6FF7570
:101340002C404FF6FF452C400D884FF6FF7606EAFD
:1013500005252C434FF6DF752A400D8906EA051551
:101360002A434D8806EA05152A43154DA84202D0A6
:10137000144DA8421DD14FF67F752A404D894FF676
:10138000FF7606EA05152A434FF6BF752A408D8879
:1013900006EA05152A434FF6FF352B404FF2FF753D
:1013A0002B408D8906EA85052B43CD8906EA850504
:1013B0002B4383800483CD880587028470BD0000A1
:1013C000002C0140003401400A460021018B4FF2FD
:1013D000FF7319404FF6FF7303EA02231943018399
:1013E00070470000002202881D4B98420ED01D4B12
:1013F00098420BD0B0F1804F08D01B4B984205D0DB
:101400001A4B984202D01A4B984204D14FF68F7370
:101410001A404B881A43174B984207D0164B9842F4
:1014200004D04FF6FF431A40CB881A4302808B88C2
:1014300083850B8803850A4B98420BD0094B984251
:1014400008D00E4B984205D00D4B984202D00D4B60
:10145000984201D10B7A03860123838270470000F2
:10146000002C01400034014000040040000800400E
:10147000000C0040001000400014004000400140FB
:10148000004401400048014021B1828942F40052E9
:10149000828104E082894DF6FF731A408281704791
:1014A00000B585B001210420FFF70EFE012188035D
:1014B000FFF70AFE4FF40070ADF8100018208DF809
:1014C000130003208DF8120004A91348FFF73EFD16
:1014D0004FF48060ADF8100004208DF8130004A9CB
:1014E0000D48FFF733FD4FF4165000900020ADF883
:1014F0000400ADF80600ADF80800ADF80C000C20B3
:10150000ADF80A006946054800F018F801210348C3
:10151000FFF7BAFF05B000BD0008014000380140E8
:1015200002460020B1F5007F00D100BF13880B40B8
:101530000BB1012000E00020704700002DE9F047CA
:1015400086B005460E460024A24600BFA1460027ED
:10155000B08900B100BF2F462C8A4CF6FF700440C2
:10156000F08804432C82AC894EF6F3100440B08816
:1015700031890843718908430443AC81AC8A4FF632
:10158000FF400440B0890443AC8201A8FFF7ACFDE2
:101590001F48874202D1DDF810A001E0DDF80CA061
:1015A000A88900F4004040B10AEBCA0000EB0A1021
:1015B00031684900B0FBF1F807E00AEBCA0000EB24
:1015C0000A1031688900B0FBF1F86420B8FBF0F034
:1015D00004012009642101FB1089A88900F400405E
:1015E00040B1322000EBC900B0FBF1F000F0070081
:1015F000044308E0322000EB09106421B0FBF1F055
:1016000000F00F0004432C8106B0BDE8F087000015
:1016100000380140C1F308028280704700BFFEE736
:101620000FB4054B10B503A9044A029800F0DAF88C
:1016300010BC5DF814FB0000ED1E00083410002003
:1016400002E008C8121F08C1002AFAD1704770478B
:10165000002001E001C1121F002AFBD170470000E9
:101660002DE9FF5F82B00021DDE90430020DDDF8D5
:1016700040B0034318D044F61050A2F2FF32424368
:101680001514119801281FD0A5EB0B00401C5FEA30
:10169000000A4FF000064E4FDFF83891B046504632
:1016A00015D5CAF1000413E0119801244AA30128BA
:1016B00001D16FEA0B010298119AC0E90031C0E92B
:1016C000024206B0BDE8F09FCBF10000DFE7044620
:1016D0000021404A491842EB0450CDE9001012E0C5
:1016E000E00707D032463B4640464946FEF7D4FD68
:1016F0008046894632463B4610461946FEF7CCFDE9
:1017000006460F466410002CEAD1DDE90401DDE94C
:101710000023BAF1000F06DAFEF7BEFD42464B4643
:10172000FEF7BAFD05E0FEF729FE42464B46FEF7FE
:1017300025FE04460E460022284BFFF785F803D805
:101740004FF0FF30014607E00022254B204631468E
:10175000FEF7BBFFFFF760F8102409E0002C0ADB5E
:101760000A220023FEF7ECFE039B30321A55641E5A
:1017700050EA0102F2D1641C039AC4F1110314442B
:10178000119A012A03D0012208430DD10AE008432F
:1017900004D000204FF0110B119072E7A3EB0B0562
:1017A0006D1E0DE05B4504DD4FF0000205F1010503
:1017B00004E003DA4FF00002A5F10105002AECD0A5
:1017C00002981199C0E90231C0E9004579E70000AB
:1017D000000014400000F03F300000000000F04323
:1017E0000000E03F2DE9FF4F95B09A468846064637
:1017F0000025EEE1252877D100242746F94A01216A
:10180000039400E0044316F8013F203B01FA03F083
:101810001042F7D130782A2811D06FF02F0330789A
:10182000A0F13002092A16D8039A44F0020402EB10
:10183000820203EB42021044761C0390EFE758F853
:10184000042B0392002A03DA504244F4005403901C
:1018500044F00204761C30782E2816D116F8010FB9
:1018600044F004042A280DD06FF02F023078A0F144
:101870003003092B09D807EB870302EB4303C71892
:10188000761CF3E758F8047B761C30786C280FD070
:1018900006DC4C2817D068280DD06A2814D104E043
:1018A000742810D07A280FD10DE044F400140AE017
:1018B00044F4801401E044F440147278824202D16E
:1018C00004F58014761C761C307866280BD013DC67
:1018D000582877D009DC002875D04528F6D046284E
:1018E000F4D047281AD193E118E0632835D0642852
:1018F00079D0652812D18BE1702873D008DC672875
:10190000F1D069286FD06E280DD06F2806D1ACE0D9
:1019100073282CD0752874D0782853D05246179944
:1019200090476D1C54E1C4F30250022809D00328EB
:101930000DD0D8F8001004280DD00D6008F104086F
:1019400046E1D8F80010EA17C1E90052F6E7D8F8E6
:1019500000100D80F2E70D70F0E718F8041B8DF809
:10196000001000208DF80100EB46012003E058F83C
:1019700004BB4FF0FF3061074FF0000102D40DE0CF
:1019800009F101018946B9420FDA8145F8DB1BF8FC
:1019900009100029F4D108E009F1010189468142CA
:1019A000FADB1BF809100029F6D103985346A0EB87
:1019B000090721463846179A00F080FA284400EBC0
:1019C000090507E044E008E10DE01BF8010B524671
:1019D00017999047B9F10109F7D253462146384685
:1019E000179AF2E039E00A21C4F302524FF0000BDB
:1019F0000091022A06D058F8040BC117032A09D017
:101A00000AE023E008F1070020F00702F2E80201F3
:101A1000904605E000B2C117042A01D140B2C117B7
:101A2000002906DA0A460021404261EB02012D221C
:101A300002E0220504D52B228DF80420012203E0C8
:101A4000E20701D02022F7E7914657E00A2100E0A3
:101A500010214FF0000B00910BE010214FF0000B14
:101A600044F004040827009103E008204FF0000B25
:101A70000090C4F30252022A05D058F8040B00214A
:101A8000032A08D008E008F1070020F00702F2E876
:101A90000201904603E080B2042A00D1C0B24FF0A8
:101AA000000922072AD53278702A07D0DDF800C055
:101AB0008CF0100C5CEA0B0C05D00EE040228DF887
:101AC0000420012208E050EA010306D030238DF8FB
:101AD00004308DF8052002229146009B83F0080314
:101AE00053EA0B030AD150EA010201D1620705D57E
:101AF00030228DF804204FF001097F1E3278582AD9
:101B000004D039A20C920CAA02920BE03BA2F9E796
:101B10005B46009AFEF714FD0C9B9B5C029A521EDA
:101B20000292137050EA0102F2D1029804A9081A35
:101B300000F1200B600702D524F4803400E0012777
:101B40005F4502DDA7EB0B0000E0002000EB0B017E
:101B5000009003984944401A0390E00306D453468A
:101B60002146179A039800F0A9F90544002706E0DA
:101B700001A85246C05D179990476D1C7F1C4F45C8
:101B8000F6DBE0030CD553462146179A039800F084
:101B900095F9054404E030205246179990476D1C92
:101BA0000099481E00900029F5DC08E0029802998F
:101BB00052460078491C0291179990476D1CBBF161
:101BC0000001ABF1010BF1DC5BE100F065F90544CC
:101BD000761C307800287FF40DAE19B02846BDE899
:101BE000F08F0000092801003031323334353637A8
:101BF0003839616263646566000000003031323359
:101C000034353637383941424344454600000000F8
:101C1000600700D4062708F1070020F00700F0E86D
:101C20000223804603F0004C5FEA0C0001D097A02D
:101C300009E0200501D596A005E0E00701D095A0B8
:101C400001E0AFF24C001390307823F00043652898
:101C50000CD006DC452809D046281DD047287FD166
:101C60003BE0662818D067287AD136E00021112F92
:101C700001DB112000E0781CCDE9000104A90CA8CB
:101C8000FFF7EEFCDDE90D010C9A4FF0000B07F1B8
:101C90000109109200914EE04FF000400097CDE90D
:101CA000011004A90CA8FFF7DBFCDDE90D020C9B79
:101CB0000F994FF0000B91461093009211B9791CC7
:101CC00000EB0109B7EB090003D4C0F1FF3B07F1BA
:101CD0000109A9EB0700019042E0012F00DA01277A
:101CE0000021112F01DD112000E03846CDE900016F
:101CF00004A90CA8FFF7B4FCDDE90D010C9A0091D2
:101D00004FF0000BB946109221070FD4009A4A45B4
:101D100003DA914601E0A9F10109B9F1010F05DDEE
:101D2000109AA9F10101515C3029F4D0B84202DACD
:101D300010F1040F03DA0121CDE9011010E00028B1
:101D400003DC8344A9EB000102E0411C494500DDAE
:101D50008946A0EB0B00401C01904FF00040029020
:101D6000200705D40198484502DB4FF0FF30019071
:101D700000208DF84B0002980DF14B07B0F1004F99
:101D800025D002200C902B200D90029800280CDA10
:101D9000404202902D200D9007E00A210298FEF7A4
:101DA000B9FB3031029007F8011D0C99481E0C90C8
:101DB0000029F2DC02980028EFD1791E0D980870F6
:101DC000307800F0200040F0450007F8020D11A81F
:101DD000C01BC01D02901398007800B1012000EBD9
:101DE0000901019801EBE071029801440398401A3F
:101DF000401E0390E00306D453462146179A0398E9
:101E000000F05CF805441398007818B15246179911
:101E100090476D1CE00323D553462146179A03983B
:101E200000F04CF805441BE0BBF1000F07DB009805
:101E3000584504DD1098179910F80B0001E0179928
:101E400030205246904701980BF1010B401E05F1DE
:101E50000105019004D12E205246179990476D1C20
:101E6000B9F10001A9F10109DEDC05E017F8010B69
:101E70005246179990476D1C0299481E02900029FE
:101E8000F4DC53462146179A03989EE62D00000085
:101E90002B000000200000002DE9F0410446002541
:101EA0001E461746880404D405E039462020B04772
:101EB0006D1C641EF9D52846BDE8F0812DE9F0417E
:101EC000044600251E469046C80301D5302700E091
:101ED0002027880404D505E041463846B0476D1CEC
:101EE000641EF9D52846BDE8F081000070B50446AF
:101EF0000D46E1B20548FFF78DFB00BF8021034886
:101F0000FFF70EFB0028F9D0204670BD00380140D5
:101F100010B520488068204908601E4880681F4925
:101F2000086002201E49086026E01A491C4A12680F
:101F300051F8220018490968FEF7E2FA06D215485E
:101F40001749096850F82100134908601149144ADB
:101F5000126851F8220011490968FEF7C7FA06D243
:101F60000C480F49096850F821000C4908600C48DA
:101F70000068401C0A49086009480068B0F57A7F8B
:101F8000D3DB0648016804480068FEF741F90549BB
:101F9000086010BD38100020101000200C10002028
:101FA0001410002020100020C0B0FFF779FAFEF7CF
:101FB000ABFDFEF740FFFEF78DFF58E000202C49F7
:101FC000086030E02B480088FEF747FA81464FF062
:101FD0008B41FEF723F90446FEF758FA07464FF007
:101FE0006632254BFEF758F90546FEF762FA23499B
:101FF00008600846006822491D4A126841F822001C
:102000001B4A126851F82200FEF740FA04462246A5
:102010000B46174801681BA0FFF702FB1448006835
:10202000401C1349086012480068B0F57A7FC9DB8C
:10203000FFF76EFF00201849086013E01649096891
:1020400049000F4A52F82100FEF70CFA6421484378
:10205000C0B2114A12680DF802000F480068401C17
:102060000D4908600C480068FF28E7DD00BFA5E7C0
:10207000181000203010002066660A40041000206E
:10208000381000206164635F6275665B25645D20C3
:102090003D2025660A00000014100020BC20000826
:1020A0000000002038100000FE080008E02C0008A6
:1020B00038100020E0320000501600081200012005
:1020C000050102030404100B0607080902040608B0
:1020D000004015510420115DDD213BA3227E180034
:1020E00000412D7EA5412D08200900C000405DDD86
:1020F00082E71C311491302011AA2A94126B3946C0
:102100000649327C0CA8118E23082140200521F7B6
:1021100079311C2114A154601195C6B13F461A2B88
:102120001E58EE3735BEB4C53E20A00D63A97138E8
:10213000DF089A28B7CDC53E78200563A92B1E4C31
:10214000212C2005BEB47C0C38A01161AC213B953C
:10215000C6BAF9BAE571383BA737359C201121F78B
:1021600066D756D53F3D3BA78E23A811C9CA50203C
:102170000961AC7E18AA2AC1C27C2144A1F02011B9
:102180001E3BB504693E9201C83C2403EB3564094B
:102190000821D020056C30060E1C2114A1E460112A
:1021A000AE240917AF37D607882E8D0F7E1E5D1B14
:1021B00020A40D24188C1F1E34F10AB32690150894
:1021C0002005140B60274C212C20057104FB2A38B4
:1021D0002500A40DC7FD5A2E9D2C1211FE15E720D7
:1021E0002C201187F05334B2281314480D202602F6
:1021F000EAE53650251820059CE32B397C2144A5BF
:10220000A420114ED7C53C9320EF198FFB6C2F787B
:10221000D1153E682530A40DE2CB0F3F641CC61CCF
:10222000B8F2683374200597C1FB3FAC215C2005F0
:10223000F0BCEC3F802548A40DA6B8853FD5133DE2
:102240002282E1DB3998201140B1AF3D790FDA24C9
:102250004DD9423C2EAE423C98256020058EAB8283
:102260003ADC2174A5BC2011B1A71236A906CE29EB
:1022700015CA4F3F78A66833F42578A40DBCA5761F
:10228000303902212C38C3EC3FE02405BCA5CE290F
:102290000C218C200578A62026C8A81109BAB13FC8
:1022A000B1A73D2257F976304DB74F3F0420118E2C
:1022B000ABEF19ECF474325EB2153E2EAE9015E021
:1022C00024092DB03F3D40B112113C21A4A928247E
:1022D00011A6B8D6072BEC1236C8AADB39F0BC24FD
:1022E0000354296CA80D97C16EFEDCE7B03734A803
:1022F000E5364C153826F56C21BC240578D173F0F1
:1023000010A811EDA579314ED7EDEB6DDF823A992A
:10231000A56C2F7024119CE33AE352DBB63B99A5E0
:10232000FB2A02EA19DF282409EDA59A2887F0265E
:10233000DB9C21D4A9944411C7FDDFD363D3AF3D07
:1023400034A8E720710494D040A80F2B1E140B8CE6
:10235000CD94CF723EC8AA5D1BB82405241850C87E
:10236000CC21EC24057E1E25C658A8112DB0941250
:10237000AE244AC451C8853F5EB28D0FDC24116C77
:10238000308EC1E2C4D43F4DB76409EB35B1C070A3
:10239000240909BA46061E3B2CC0FC2504ADC00327
:1023A0002011D03E2E019B3F6500363FC9009A3D6B
:1023B0005B02082D100320055F3C88031C2114AD2F
:1023C00024036011D939E205023EF701F43BED0325
:1023D0008E380E0720AC0D3F373908313DC002461C
:1023E0003A7E054803200592348E0A4C212C2005A4
:1023F0003433B70B382D4003AC0DD231DF0C8A3BA0
:102400005104CE369D086C032011022F2B0FB23AD7
:102410001A0505352B0A932D5010502D5803200511
:10242000212C73117C2144AD740420113129B41383
:10243000FD38AA065B31410DB327D214942D7003E9
:10244000AC0D3226EE151F3872077B2FCA0EB4036F
:10245000200526232118AC215C20059C21371980FA
:102460002D8803AC0D0E204B1A5D360109A42BD329
:1024700011D8032011EB1C6C1C7835C709AF295407
:1024800013561B791D982DA0032005BE19841EDC50
:102490002174ADFC03201188169120A933540BB18F
:1024A000254C16EA149321F42DB803AC0D4A13926F
:1024B00022BF321A0CA923C4172004240505108852
:1024C000240C218C2005610E7E25C82DD003AC0D77
:1024D000BB0C7126E430A40D891FA71A44042011F7
:1024E0006D094C28F42F680E721D121CC407352983
:1024F000E02DE80324051B061A2A3C21A4BD68042C
:10250000241002D82B0E2EEE0F3519DC1E1C01B242
:102510002C542DAC04AC0D72FF882D182DB1101168
:10252000173A208C0424051DFC282F6C21BC24059F
:1025300073FAF22F102D1804AC0DCAF8B830282BFE
:102540003412BF12E722B004241179F536322D2A55
:10255000F41291103524D2F3EF32282D30042405E3
:102560002CF2A3339C21D4ADD4042411E3EEFF3428
:10257000332873142E0CC12641EDA535402D480497
:10258000AC0DA1EB483633273115FA09FE27F804C4
:10259000240565E87E37CC21EC2405CBE6123858BB
:1025A0002D6004AC0D32E5A1382F25AB168D0565E5
:1025B0002A1C05241108E2B0392B24661755038F15
:1025C0002B77E0303A702D78042405E9DEAB3AFC35
:1025D0002504AD90062811D5DB923B1F22DB18E4C1
:1025E000FECF2D4FDAFD3B142D9004AC0DCDD864F9
:1025F0003C17219319ABFCE42E64052805D3D521A3
:102600003D2C251C24055CD4783DA02DA804AC0DE0
:10261000E8D2C93D041F021B3CF8F930880524119B
:102620000CD05C3EF81DB81B06F6F831A5CE9D3ED9
:10263000B82DC004280541CDD83E5C2534ADAC058D
:10264000241188CA403FDD1B201D9FF1DF3332C9B2
:102650006B3FD02540AC0DE1C7913FCE1AD31D6F23
:10266000EFC634D00528054EC5CC3F8C254C24053B
:102670000CC4E13FE82DF004AC0DCFC2F13FAD1822
:10268000341F16EB7D36F4051E657405280D9B1767
:10269000E31FEFE84B3738BFFF3F002D0805280543
:1026A00011BEF83FBC2564AD18062811D4BBDB3F32
:1026B00074153D21AAE4CF38BFBAC43F182D8C064B
:1026C000AC0DAFB9A73F5F14E8218EE284393C0618
:1026D0002805A2B75D3FEC257C2805A5B6303F3024
:1026E0002D3805AC0DAFB5FD3E34123B2364DED36F
:1026F0003AF8072811D5B3883E1D11E22357DC6D47
:102700003BF2B2453E482D50052C0515B2FC3D1C50
:10271000032594AD84062C1171B05B3DED0E2C2584
:102720004DD8853CA9AF033D340325A0AC0DE8AEE0
:10273000A53CD40DCF2551D6033DA8062C057BAD75
:10274000DA3B4C0325AC2805D0AC6D3B782D8005D9
:10275000BC0C2BACFA3AA10B11276DD2E3CC0628A6
:1027600011F8AA063A870AAF2785D0453E6AAA849F
:1027700039902D98052C05E3A9FD387C0325C4ADBF
:10278000F0062811EBA8E1375208E728CCCCEB3E45
:102790007BA84B37A82DB005AC0D12A8B136360773
:1027A0008129FBCA303F14072C0557A76E35AC03AF
:1027B00025DC280505A7C634C02DC805BC0CBBA662
:1027C0001934FF04B02A72C79C380728113EA6B2FC
:1027D00032E303452BBAC5C43F0BA6F831D82DE030
:1027E000052C05E0A53931DC0325F4AD5C072C117F
:1027F000A1A5AF2FAA016A2C66C2F53F8DA5E42ED4
:10280000F4032DF805BC0C81A5152E8E00FA2CCAF8
:10281000C0FF80072C0581A56A2C0C04290C2C050F
:102820008DA58F2B0803100473BEFB48AC0BB02A98
:1028300056FE152EB0BDF53FA407100CE0A5E72805
:1028400039FD9F2E32BCE1902FFE27200310047724
:10285000BBD4A82F11273C042924ADC807100CBBFA
:10286000A62C2501FBAF2F56B99CF02F352454041C
:102870002930BC0C57A73B23E5F93430F8B76BEC93
:10288000072C0512A83D216C04293C2C057BA83A95
:10289000205003AC1100B60F3FEBA8341FAEF73940
:1028A000315EB5EB3E140A140CE3A9201D93F6B972
:1028B0003122B49DB02F121C6803140488B372C86F
:1028C0002F021B9C042954AD3408180C2BACDB18C8
:1028D0005FF4B232CDB1E3102FC417B4042960AC59
:1028E0000D7BADAB1645F32C33B5B0783D58082CB5
:1028F00005E8AE7314CC04296C2C05A9AF541398C9
:1029000003180428AFC588AC0B341213F11934A98D
:10291000AE853C7C08180C15B2EE0FFBEF8D34B67B
:10292000ADFDD02FCA0EB003180441ADB6E82FA4F8
:102930000DFC042984ADA0081C0CAFB5540BCCEDE4
:102940006E35F6ABD330032F2B0A14052990AC0D4E
:10295000A2B70109B6ECDC3529AB303AC4082C0526
:10296000AFB9AA062C05299C2C05BFBA7E05E00349
:10297000AC110FAA2B39D4BB51048CEAB136B7A9DC
:10298000CF38E8082C1111BEF70178E9183712A9E1
:10299000123838BFC900F8032C09C5A8B03765C084
:1029A0009BFF5C0529B4AD0C093C11CFC240FD531F
:1029B000E7E137F1A77D360CC413FC740519C0ACF0
:1029C0000D4EC5E6FA42E6423874A7A53530092C0B
:1029D00005E1C78EF88C0529CC2C0532C963F72890
:1029E00004AC11D3A6533488CA39F623E4FD38A4C5
:1029F000A6DF3354092C1141CDE6F315E3583950C5
:102A0000A6EF32A5CEBFF240042C092CA674320CDE
:102A1000D098F1BC0529E4AD78092C11E8D24FEF2C
:102A2000FCE0063AD3A5F9305CD42DEED40529F0AC
:102A3000AC0DD3D50CEDF2DF593AA9A5F22F9C09C4
:102A40002C05CDD8CFEAEC0529FC2C054FDAB4E9EA
:102A50007004AC1185A55A2ED5DB9AE8E1DDFA3A6F
:102A60007FA5CF2DC0092C11E9DE6DE6DADC473BEE
:102A70007FA5B22C77E059E588042C0985A5212C87
:102A800008E248E41C062D1403ADE4092C1132E5DC
:102A90002DE2D1DADA3BA9A5652ACBE624E134069A
:102AA0002DC40AAC0D65E81DE0CED9203CD3A53578
:102AB00029080A2C05A1EB18DE4C062D2C032C0549
:102AC00041ED19DDB804AC112CA66027E3EE1EDC45
:102AD000CDD7A53C50A6C1262C0A2C112CF231DAF8
:102AE000CFD6E43CA4A67E25D2F33FD9D0042C094E
:102AF000D3A6DA2479F551D87C062D4403AD500ACB
:102B00002C11CAF87FD6D8D45B3D74A7E72273FA9C
:102B10009BD5E8042D5003AC0D1DFCBBD4DFD39333
:102B20003DF1A79321740A2C0572FF06D3AC062D44
:102B30005C032C051C0131D20005AC11C5A88C1F0B
:102B4000C70261D1F2D1FC3D12A9DC1E980A2C11FA
:102B50001B06CCCFFED02D3EB7A9791DC40707CFE9
:102B600018052C090FAAC61C6D0947CEDC062D746A
:102B700003ADBC0A2C11BB0CD4CC1CCF883E29ABB6
:102B8000A71A610E21CCF4062D8003AC0D0510733D
:102B9000CB2ECEB13EF6AB3719980D2C054A132437
:102BA000CA0C072D8C032C05EA1483C94805AC1107
:102BB00041AD09178816E8C857CCFD3EB6AD4C1696
:102BC000040B2C11BE19BEC76ECB203FA9AED21488
:102BD000561B31C760052C0928AF1314EB1CA8C67F
:102BE0003C072DA403AD280B2C110E20A7C5A3C9AB
:102BF0005D3FB5B0D3119C212DC554072DB003AC5A
:102C00000D2623B9C4C1C8783FCDB150104C0B2C50
:102C1000053226E0C36C072DBC032C05B3277BC30C
:102C20009005AC1188B3060E31291CC303C7A73F1A
:102C300022B4410D700B2C11212C6DC227C6BB3F55
:102C40005EB5B70B932D1DC2A8052C0900B6F10A7D
:102C5000022FD3C19C072DD403AD940B2C11D2317C
:102C60004FC176C4DB3FF8B79D08343315C1C005AA
:102C70002DA40CAC0D9234E0C0A1C3E73F56B90EB1
:102C800007B80B2C053F3788C0CC072DEC032C056B
:102C90008E3864C0D805AC1177BBB504D93945C0AE
:102CA000FEC1F83F32BCED03DC0B2C115F3C19C0B8
:102CB00030C1FD3FB0BD5B029A3D0BC0F0052C0951
:102CC00073BE9201D03E03C0FC072D0404011C0119
:102CD0005C0780BFB07238C0220F71010000000095
:0400000508000131BD
:00000001FF
