:020000040800F2
:100000002021002045010008831700087B17000805
:100010007F17000865100008C91D000800000000D7
:100020000000000000000000000000005919000856
:10003000551500080000000009180008451A0008BE
:100040005F0100085F0100085F0100085F01000810
:100050005F0100085F0100085F0100085F01000800
:100060005F0100085F0100085F0100081D12000821
:100070005F0100085F0100085F0100085F010008E0
:100080005F0100085F0100085F0100085F010008D0
:100090005F0100085F0100085F0100085F010008C0
:1000A0005F0100085F0100085F0100085F010008B0
:1000B0005F0100085F0100085F0100085F010008A0
:1000C0005F0100085F0100085F0100085F01000890
:1000D0005F0100085F0100085F0100085F01000880
:1000E0005F0100085F0100085F0100085F01000870
:1000F0005F0100085F0100085F0100085F01000860
:100100005F0100085F0100085F0100085F0100084F
:100110005F0100085F0100085F0100085F0100083F
:100120005F0100085F0100085F0100085F0100082F
:10013000DFF80CD000F016FE004800476D200008E4
:10014000202100200648804706480047FEE7FEE7DA
:10015000FEE7FEE7FEE7FEE7FEE7FEE7FEE7FEE777
:10016000491A0008310100082DE9F04F4FF0000C4A
:100170004FF0000301EB1C6EBEF90250BEF90040C7
:100180000EF5807EBEF90290BEF900800EF5807EED
:10019000BEF90270BEF900600EF5807EBEF902B0B5
:1001A000BEF900A00EF5807ED044D944A8EB4A0ADF
:1001B000A9EB4B0B4FEAA4044FEAA50504EBA604F8
:1001C00005EBA705A4EB6606A5EB670704EBA804FF
:1001D00005EBA905A4EB6808A5EB690906EBAB06DE
:1001E000A7EBAA07A6EB6B0B07EB6A0A458020F882
:1001F000044B478020F8046BA0F8029020F8048B91
:10020000A0F802A020F804BB03F1010393FAA3FCB9
:10021000402BAFD1A0EB82014FF0100312090FF277
:10022000361000F1000006B403EB430C6144A2F564
:10023000803202EB8332B1F90250B1F90040A1EBF8
:100240000301B0F902B0B0F900A000F10400A5EB81
:10025000040E0EFB0BFC0AEB4B0E05FB0ACB04FB5A
:100260000ECAB1F90250B1F90040A1EB0301B0F997
:100270000290B0F9008000F10400A5EB040E0EFB23
:1002800009FC08EB490E05FB08C904FB0EC8B1F9CF
:100290000250B1F90040A1EB0301B0F90270B0F9CE
:1002A000006000F10400A5EB040E0EFB07FC06EB5A
:1002B000470E05FB06C704FB0EC6B1F90250B1F9A3
:1002C000004001F10001D044D944A8EB4A0AA9EB4F
:1002D0004B0B4FEAA4044FEAA50504EB264405EBBB
:1002E0002745A4EBE636A5EBE73704EB284405EBFE
:1002F0002945A4EBE838A5EBE93906EB2B46A7EB3B
:100300002A47A6EBEB3B07EBEA3A4D800C801944F9
:100310004F800E801944A1F80290A1F80080194482
:10032000A1F802A021F804BBB2F5803283DA03EB16
:10033000430C6144A2F101025FEA024E18BFA0EB38
:100340000C007FF476AF06BC4FEA830392087FF47B
:100350006AAFBDE8F08F00400000004000000040A0
:1003600000005DDD213BA3227E180000412D7EA50B
:10037000412D0000412D00C000405DDD82E75DDDC4
:10038000213B7EA5412D00400000004000000040C0
:100390000000AA2A94126B39460649327C0CA81137
:1003A0008E2349327C0CA3227E1821F77931AA2AA8
:1003B0009412A8118E235DDD213BA3227E1800003C
:1003C000412D95C6B13F461A2B1E58EE3735BEB4A7
:1003D000C53EA8118E235DDD213B63A97138DF087E
:1003E0009A28B7CDC53E7EA5412D0000412D00C005
:1003F000004063A92B1E21F77931BEB4C53EBEB4BF
:100400007C0C58EE373561AC213B95C6BAF9BAE59C
:1004100071383BA737355DDD82E75DDD213B7EA589
:10042000412D21F766D756D53F3D3BA78E23A81116
:10043000C9CAB7CDC53E61AC7E18AA2AC1C295C64D
:10044000B13FBEB47C0C0040000000400000004002
:1004500000001E3BB504693E9201C83C2403EB3505
:100460006409C83C24036B3946066C30060E1E3BFB
:10047000B504EB356409AA2A94126B394606493251
:100480007C0CAE240917AF37D607882E8D0F7E1E41
:100490005D1BEB356409AA2A941224188C1F1E34A4
:1004A000F10AB3269015A8118E2349327C0CA322A1
:1004B0007E18140B60276C30060E7E1E5D1B7104C7
:1004C000FB2A882E8D0F461A2B1EC7FD5A2E9D2CF7
:1004D0001211FE15E72021F77931AA2A9412A811EA
:1004E0008E2387F05334B2281314480D202602EAD5
:1004F000E536B3269015DF089A289CE32B39AE2405
:1005000009177104FB2A5DDD213BA3227E18000040
:10051000412D4ED7C53C9320EF198FFB6C2F78D11E
:10052000153E7E1E5D1B21F77931E2CB0F3F641C27
:10053000C61CB8F2683395C6B13F461A2B1E58EE5A
:10054000373597C1FB3F24188C1F02EAE536F0BC13
:10055000EC3FFE15E720BAE57138A6B8853FD51304
:100560003D2282E1DB39BEB4C53EA8118E235DDD9C
:10057000213B40B1AF3D790FDA244DD9423C2EAE3C
:10058000423C480D202656D53F3D8EAB823A140B97
:10059000602778D1153E63A97138DF089A28B7CD56
:1005A000C53EB1A71236A906CE2915CA4F3F78A677
:1005B00068337104FB2A95C6B13FBCA57630390279
:1005C000212C38C3EC3F7EA5412D0000412D00C0F9
:1005D0000040BCA5CE29C7FD5A2EF0BCEC3F78A642
:1005E00020268FFB6C2F09BAB13FB1A73D2257F9E6
:1005F00076304DB74F3F63A92B1E21F77931BEB43A
:10060000C53E8EABEF19ECF474325EB2153E2EAEE1
:100610009015B8F268332DB03F3D40B1121187F00C
:1006200053342EAE423CBEB47C0C58EE373561AC30
:10063000213BA6B8D6072BEC1236C8AADB39F0BC92
:10064000240302EAE53663A9713897C16EFEDCE740
:10065000B03734A8E53695C6BAF9BAE571383BA784
:100660003735E2CB0FF59CE32B3978A6683378D188
:1006700073F082E1DB39EDA579314ED7EDEB6DDF1B
:10068000823A99A56C2F5DDD82E75DDD213B7EA579
:10069000412D9CE33AE352DBB63B99A5FB2A02EAE3
:1006A00019DF4DD9423CEDA59A2887F026DB4ED7BD
:1006B000C53C78A6202621F766D756D53F3D3BA7F7
:1006C0008E23C7FDDFD363D3AF3D34A8E720710489
:1006D00094D078D1153E63A92B1E140B8CCD94CFEA
:1006E000723EC8AA5D1BA811C9CAB7CDC53E61AC90
:1006F0007E18241850C8E2CB0F3F2EAE90157E1EF8
:1007000025C615CA4F3F2DB09412AE244AC451C815
:10071000853F5EB28D0FAA2AC1C295C6B13FBEB455
:100720007C0C6C308EC1E2C4D43F4DB76409EB350C
:10073000B1C038C3EC3F09BA46061E3B2CC097C176
:10074000FB3FF0BC2403F0B480EA0102D40F420066
:10075000B2EB410F02D20246084611464A0042D08F
:10076000C30DDDB2C1F3C752AD1A202D35DAC1F386
:10077000160141F4000204B15242C5F1200602FA0A
:1007800006F12A411044B3EBD05F23D0C4B1012D50
:10079000A0EBC35009DCF0BC4FF0004202EAC352A8
:1007A000DBB200F5000000F000BA400000F18070FC
:1007B00000EBC350A0F1807040EAD170490009E01D
:1007C000490841EAC071A0EBC35000F500004008A1
:1007D00000EBC350F0BC00F0DFB96142012202EB34
:1007E0004101001BF6E7F0BC704781F00041AAE729
:1007F00080F00040A7E780EA010210B502F0004354
:10080000400022D04A001FD0010E01EB1261C0F35C
:100810005600C2F3560240F4000042F40002A0FB6E
:10082000022000047F39140400D0401C50EA12401A
:1008300001D44000491EC2B20C0604EBD010401C8B
:100840004008802A02D003E0002010BD20F0010003
:10085000002900DA0020184310BD30B480EA0102FC
:1008600002F0004530F0004221F0004013D090B17A
:10087000C30DD40DC2F31601C0F31600E41A41F4FF
:10088000000140F400027D34914201D3641C00E079
:100890004900002C02DA30BC002070474FF4000001
:1008A0000023914201D3891A034340084FEA4101D2
:1008B000F7D151B1914202D14FF0004105E002D28F
:1008C0004FF0010101E06FF0010103EBC450284437
:1008D00030BC00F061B92DE9FE4F81EA030404F059
:1008E000004421F0004100944FF0000B23F000433E
:1008F00050EA01045ED052EA03045BD0C3F30A5409
:10090000C1F30A552C44A4F2F3340194A0FB025421
:10091000C1F3130141F48011C3F3130343F48013B3
:1009200001FB024400FB034E840A970A44EA815407
:1009300047EA8357A4FB076802958D0A05FB0785E4
:100940004FEA932C04FB0C542705029D4FEA0658EE
:1009500047EA1637B5EB08056EEB070C870E920ECB
:1009600047EA811742EA8312A7FB0201B6EB0B01AB
:1009700064EB00042B0D43EA0C335E1844EB1C506F
:10098000DA465146E7FB0201C5F313044FEA0B3385
:1009900043EA14534FEA0432019C43EA0603A4F1EC
:1009A0000C040294009CCDE900B400F03BF903B0C4
:1009B000BDE8F08F00200146F9E72DE9F04D81EA0E
:1009C000030404F0004B21F0004514464FF0000AE8
:1009D00023F0004150EA050220D054EA01021DD064
:1009E000C5F30A570246C5F31303C1F31300C1F35D
:1009F0000A5640F4801543F48013A7EB0608101B39
:100A0000D64608F2FD3873EB050002D308F1010861
:100A100001E092185B41B8F1000F03DA00200146B3
:100A2000BDE8F08D00204FF48011064684460EE0AC
:100A3000171B73EB050705D3121B63EB0503064376
:100A40004CEA010C49084FEA300092185B4150EA29
:100A50000107EDD152EA030012D082EA040083EAD2
:100A60000501084305D0101BAB4106D2012200232B
:100A700006E000224FF0004302E06FF00102531045
:100A80001AEB06004CEB085110EB0A0041EB0B018E
:100A9000BDE8F04D00F0B7B8C10F80EAE07008443F
:100AA000CA079623002100F080B896230022114641
:100AB00000F07BB800F0004220F00040C10DC0F310
:100AC000160040F400007F2901DA002070479629C3
:100AD00003DCC1F19601C84001E096398840002A44
:100AE000F4D04042704720F00040C10DC0F3160022
:100AF00040F400007F2901DA00207047962903DCCA
:100B0000C1F19601C840704796398840704700F09F
:100B1000004230F000400AD0C10D01F56071C0F311
:100B2000160042EA0151C2084007114370470020F5
:100B30000146704701F0004330B421F0004150EA13
:100B4000010206D00A0DA2F56072C1F31301002A5A
:100B500002DC30BC00207047440F44EAC104C100ED
:100B6000E01830BC00EBC25000F016B830B50B46B0
:100B7000014600202022012409E021FA02F59D42CD
:100B800005D303FA02F5491B04FA02F52844151EA1
:100B9000A2F10102F1DC30BD0029A8BF7047401C62
:100BA000490008BF20F00100704710B4B0FA80FC83
:100BB00000FA0CF050EA010404BF10BC704749B1C0
:100BC000CCF1200421FA04F411FA0CF118BF012130
:100BD00021430843A3EB0C01CB1D4FEA00614FEA10
:100BE000102042BF002010BC704700EBC3501044DF
:100BF0000029A4BF10BC7047401C490008BF20F06A
:100C0000010010BC704710B5141E73F1000408DA1F
:100C1000401C41F1000192185B411A4301D120F0C0
:100C2000010010BD2DE9F04D92469B4611B1B1FA7D
:100C300081F202E0B0FA80F22032904600F0A4F88F
:100C400004460F4640EA0A0041EA0B0153465A4661
:100C5000084313D0114653EA010019D0C8F14002ED
:100C6000504600F0A0F805460E465046594642460A
:100C700000F08AF8084305D0012004E020463946F8
:100C8000BDE8F08D0020054346EAE0762C4337436B
:100C90000A986305E40AA0EB08000022FD0A44EA72
:100CA00047540A3002D500200146E9E70105101932
:100CB0006941DDE9084500196941BDE8F04DA2E749
:100CC0002DE9F04D00231A461B1A8A4103DB002050
:100CD0000146BDE8F08DC1F30A52C1F3130141F49E
:100CE00080154FF0000BD10702D100186D41521E44
:100CF0000027044640F2FF11384601EB620A3E46E7
:100D00008046024600204FF4801100F04CF8C219D2
:100D10007141BB1846EB0100B4EB030C75EB000C02
:100D200004D3E41A65EB000517460E46241908F1B2
:100D300001006D4180463428E3DDF91946EB0600D9
:100D4000091BA84103D24FF0FF32134601E00022F5
:100D500013461BEB070046EB0A51BDE8F04DFFF7C9
:100D600052BF0000064C074D06E0E06840F001036A
:100D700094E8070098471034AC42F6D3FFF7DCF94B
:100D8000C8210008E8210008202A04DB203A00FAE4
:100D900002F1002070479140C2F1200320FA03F3D2
:100DA000194390407047202A04DB203A21FA02F0D0
:100DB0000021704721FA02F3D040C2F12002914095
:100DC00008431946704770B58D1810F8014B14F0A0
:100DD000030201D110F8012B231106D110F8013BB9
:100DE00003E010F8016B01F8016B521EF9D1ABB1B1
:100DF00010F8012B04F00C048A1A0C2C03D0A2EB7F
:100E000084129B1C08E010F8014BA2EB0422F8E7C7
:100E100012F8014B01F8014B5B1EF9D5A942D4D35E
:100E2000002070BD21B1826842F00102826003E0BF
:100E3000826822F001028260704721B1826842F428
:100E40008072826003E0826822F480728260704760
:100E500021B1826842F48012826003E0826822F449
:100E6000801282607047014600208A6802F0040206
:100E70000AB1012000E000207047014600208A6886
:100E800002F008020AB1012000E0002070470000D3
:100E900030B502460020002350680F4C20400D79E9
:100EA0000C6844EA05242043506090680B4C2040B5
:100EB000D1E902542C434D7944EA45042043906023
:100EC000D06A20F470000C7C641EE4B2234340EA34
:100ED0000350D06230BD0000FFFEF0FFFDF7F1FFD0
:100EE000F0B504460D4600200021092D11DDE06813
:100EF000A5F10A0606EB4607072606FA07F188431E
:100F0000A5F10A0606EB460603FA06F10843E0607F
:100F10000CE0206905EB4507072606FA07F1884330
:100F200005EB450603FA06F108432061072A0FDAAC
:100F3000606B561E06EB86071F2606FA07F18843EC
:100F4000561E06EB860605FA06F10843606322E0AA
:100F50000D2A0FDA206BD61F06EB86071F2606FA2E
:100F600007F18843D61F06EB860605FA06F108430B
:100F7000206310E0E06AA2F10D0606EB86071F264B
:100F800006FA07F18843A2F10D0606EB860605FA7C
:100F900006F10843E062F0BD816841F0080181601C
:100FA0007047816841F004018160704708B50121F4
:100FB000102000F057FC0220ADF8000000208DF852
:100FC00003006946014800F04DFB08BD00100140D8
:100FD00010B5FFF7EBFF00F001F810BD00B585B0CC
:100FE0000121480200F03EFC002000908DF8040032
:100FF0008DF805004FF4C0200290002003900120DE
:101000008DF8100069461648FFF742FF4FF4404044
:1010100000F0FCFB052301220B211148FFF760FFC4
:1010200001210F48FFF709FF01210D48FFF7FAFEE4
:101030000B48FFF7B1FF00BF0948FFF71EFF00286C
:10104000FAD10748FFF7ADFF00BF0548FFF70BFFD8
:101050000028FAD101210248FFF7FAFE05B000BDD1
:101060000024014000BFFEE739B1084A126801239D
:1010700083401A43054B1A6006E0044A12680123B4
:1010800083409A43014B1A6070470000007400408F
:1010900000B585B00121042000F0E4FB01214807E0
:1010A00000F0D0FB3020ADF8100000208DF81300C8
:1010B00004A90F4800F0D6FA2420009000200190E7
:1010C000022003906946002000F056F8694610207F
:1010D00000F052F801210020FFF7C6FF0121102087
:1010E000FFF7C2FF0121102000F004F805B000BD99
:1010F0000008014041B1094A12684FF4805383400F
:101100001A43064B1A6007E0044A12684FF48053F2
:1011100083409A43014B1A607047000000740040FE
:1011200000B58BB00121022000F07CFB0F4800903D
:101130000F4801901020029020200390002004907E
:101140008020059080000690800007902020089065
:101150000002099000200A906946064800F0C1F993
:101160000121044800F0ECF80BB000BD20740040F1
:10117000A01C00204404024030B5002200230A4C89
:10118000226840F6FE748440A243D1E900452C4316
:101190008D682C43CD6844EA050303FA00F422432A
:1011A000014C226030BD00000074004010B50024E6
:1011B000FFF76EFF00F014F800BF08E0064850F893
:1011C000240000EB0040054941F82400641C202C59
:1011D000F4D3FFF7A5FF10BD18100020A01C0020BD
:1011E0000EB50121084600F02DFB1320ADF80400D8
:1011F0000020ADF80000ADF80600ADF80200694629
:101200004FF0804000F0C4FC2021480600F0B7FCFD
:101210000121880700F048FC0EBD000010B5022037
:1012200000F040F928B3154800881549154A12689E
:1012300041F8220008461349096850F82100124974
:10124000104A126841F8220008460E49096850F811
:1012500021200C4801680DA000F0B8FD0948006885
:10126000401C08490860084600681F2801DB002070
:101270000860022000F056F810BD00001410002095
:101280001810002010100020A01C00205B25645DB9
:10129000203D2564200D0A0000B58BB001210846D1
:1012A00000F0C0FA154800F057F8154800901548AE
:1012B0000190002002900120039040200490002023
:1012C00005904FF4807006908000079020200890D1
:1012D0000002099000200A906946084800F001F9D0
:1012E0000121064800F02CF8022000F00DF8012240
:1012F0000221024800F0ECF80BB000BD08000240EB
:101300004C2401401410002000F0805111B1034919
:10131000086001E002494860704700000404024090
:101320000000024000F0805111B10349086001E063
:101330000249486070470000040402400000024077
:1013400021B1026842F00102026004E002684FF637
:10135000FE731A400260704701684FF6FE7211403A
:1013600001600021016041608160C1604B49884299
:1013700008D14A490839496841F00F01474A083AFB
:1013800051608AE045491431884208D143490839FF
:10139000496841F0F001414A083A51607DE03F4917
:1013A0002831884208D13D490839496841F47061C3
:1013B0003A4A083A516070E038493C31884208D1D5
:1013C00036490839496841F47041344A083A516055
:1013D00063E032495031884208D1304908394968C0
:1013E00041F470212D4A083A516056E02B4964318E
:1013F000884208D129490839496841F47001274ACF
:10140000083A516049E025497831884208D123499A
:101410000839496841F07061204A083A51603CE05F
:101420001F49884206D1011F096841F00F01021FC0
:10143000116032E01A491431884208D11849091F55
:10144000096841F0F001164A121F116025E01449A5
:101450002831884208D11249091F096841F4706196
:101460000F4A121F116018E00D493C31884208D123
:101470000B49091F096841F47041094A121F1160A4
:101480000BE007495031884207D10549091F096817
:1014900041F47021024A121F116070470800024097
:1014A0000804024001460020002201F0805313B1DD
:1014B000054B1A6801E0054B1A6802EA01030BB1FB
:1014C000012000E0002070470004024000000240BC
:1014D0001AB103680B43036002E003688B430360A7
:1014E000704710B50022026847F6F0739A430C6A01
:1014F0008B6823430C6923434C6923438C69234342
:10150000CC6923434C6A23438C6A23431A43026009
:10151000CB6843600B6883604B68C36010BD08B53F
:101520004FF4E06000F066F90B208DF80000002019
:101530008DF8010003208DF8020001208DF80300D2
:10154000684600F01FF908BD10B5FFF7A5FEFFF7CC
:10155000E6FF10BD7047000008B50121042000F02F
:1015600081F94020ADF8000018208DF80300032019
:101570008DF8020069461B4800F074F80121042030
:1015800000F070F98020ADF8000018208DF80300FD
:1015900003208DF802006946124800F063F801212B
:1015A000082000F05FF90120ADF8000018208DF848
:1015B000030003208DF8020069460B4800F052F842
:1015C0000121082000F04EF90220ADF8000018209B
:1015D0008DF8030003208DF802006946024800F0F0
:1015E00041F808BD00080140000C014010B5FFF7AC
:1015F000B3FF00F001F810BDF0B587B00524042555
:10160000032602270121084600F01CF96320ADF8EB
:10161000040040F2CF20ADF800000020ADF8060035
:10162000ADF802008DF808006946A00700F0B0FA96
:101630006020ADF80C000120ADF80E000020ADF8E0
:1016400014000520ADF8120003A9800700F038FA55
:101650000821C80600F086FA0121880700F024FA64
:1016600007B0F0BD2DE9F04102460025002600201C
:1016700000230024002791F803C00CF00F0591F817
:1016800003C00CF0100CBCF1000F03D091F802C0A5
:101690004CEA050591F800C0BCF1000F31D0146888
:1016A00000202BE04FF0010C0CFA00F3B1F800C061
:1016B0000CEA03069E4220D183004FF00F0C0CFA77
:1016C00003F7BC4305FA03FC4CEA040491F803C099
:1016D000BCF1280F06D14FF0010C0CFA00FCC2F847
:1016E00014C00AE091F803C0BCF1480F05D14FF0D7
:1016F000010C0CFA00FCC2F810C0401C0828D1D321
:101700001460B1F800C0BCF1FF0F34DD5468002054
:101710002EE000F1080C4FF0010808FA0CF3B1F8C4
:1017200000C00CEA03069E4221D183004FF00F0C4B
:101730000CFA03F7BC4305FA03FC4CEA040491F8E5
:1017400003C0BCF1280F05D100F1080C08FA0CF811
:10175000C2F8148091F803C0BCF1480F07D100F122
:10176000080C4FF0010808FA0CF8C2F81080401C71
:101770000828CED35460BDE8F08100BFFEE700BF6B
:10178000FEE7704770B5002100230F22C47804B330
:10179000154C246804F4E064C4F5E064210AC1F146
:1017A0000403CA40447804FA03F1847814402143C6
:1017B00009010E4C0678A155047804F01F05012498
:1017C000AC4005786D11AD0005F1E025C5F800418C
:1017D00009E0047804F01F050124AC40044D0678AC
:1017E000761145F8264070BD0CED00E000E400E005
:1017F00080E100E002490143024A116070470000A5
:101800000000FA050CED00E07047000001460020E2
:10181000034A506820F4404008435060704700007D
:101820000010024029B1064A52690243044B5A6132
:1018300004E0034A52698243014B5A617047000039
:101840000010024029B1064AD2690243044BDA6112
:1018500004E0034AD2698243014BDA617047000019
:101860000010024029B1064A92690243044B9A6172
:1018700004E0034A92698243014B9A617047000079
:101880000010024030B500210022002400232D4D1D
:101890006D6805F00C0121B1042905D0082923D178
:1018A00005E0294D056022E0274D05601FE0254D2C
:1018B0006D6805F47012234D6D6805F480340225BF
:1018C00005EB92421CB9214D554305600BE01D4DBF
:1018D0006D6805F400351DB11C4D5543056002E0EF
:1018E000194D5543056002E0174D056000BF00BF6C
:1018F000144D6D6805F0F0010909154D6B5C056824
:10190000DD4045600F4D6D6805F4E061090A104D3A
:101910006B5C4568DD4085600A4D6D6805F460517B
:10192000C90A0B4D6B5C4568DD40C560054D6D68AF
:1019300005F44041890B074D6B5CC568B5FBF3F5B9
:10194000056130BD0010024000127A0000093D0020
:101950000000002010000020704710B500F002F8D1
:1019600010BD00000CB500200190009033480068C5
:1019700040F480303149086000BF3048006800F40E
:10198000003000900198401C0190009818B901980F
:10199000B0F5A06FF1D12948006800F4003010B113
:1019A0000120009001E0002000900098012843D120
:1019B0002348006840F0100021490860084600688C
:1019C00020F0030008600846006840F0020008604C
:1019D0001A48406819494860084640684860084607
:1019E000406840F4806048600846406820F47C10FD
:1019F00048600846406840F4E810486008460068BF
:101A000040F08070086000BF0C48006800F0007073
:101A10000028F9D00948406820F0030007494860D1
:101A20000846406840F00200486000BF0348406834
:101A300000F00C000828F9D10CBD00000010024095
:101A4000002002407047000010B51348006840F0C5
:101A500001001149086008464068104908400E49D5
:101A60004860084600680E4908400B49086008466F
:101A7000006820F4802008600846406820F4FE00DA
:101A800048604FF41F008860FFF767FF4FF0006069
:101A90000449086010BD0000001002400000FFF87B
:101AA000FFFFF6FE08ED00E021B1028842F00102DE
:101AB000028004E002884FF6FE731A4002807047ED
:101AC00070B5002400220023058C4FF6EF763540D8
:101AD0000584028C8388048B48F6FF752C404FF6F2
:101AE000FF452C400D884FF6FF7606EA05252C436E
:101AF0004FF6DF752A400D8906EA05152A434D8801
:101B000006EA05152A43154DA84202D0144DA842F5
:101B10001DD14FF67F752A404D894FF6FF7606EAB4
:101B200005152A434FF6BF752A408D8806EA05152C
:101B30002A434FF6FF352B404FF2FF752B408D891E
:101B400006EA85052B43CD8906EA85052B4383806C
:101B50000483CD880587028470BD0000002C0140FD
:101B6000003401400A460021018B4FF2FF731940F7
:101B70004FF6FF7303EA02231943018370478288FB
:101B80004FF68F731A40828082880A4382807047A2
:101B9000002202881D4B98420ED01D4B98420BD05C
:101BA000B0F1804F08D01B4B984205D01A4B984299
:101BB00002D01A4B984204D14FF68F731A404B88CB
:101BC0001A43174B984207D0164B984204D04FF651
:101BD000FF431A40CB881A4302808B8883850B8889
:101BE00003850A4B98420BD0094B984208D00E4B04
:101BF000984205D00D4B984202D00D4B984201D12E
:101C00000B7A03860123838270470000002C014079
:101C1000003401400004004000080040000C004077
:101C2000001000400014004000400140004401400A
:101C30000048014021B1828942F40052828104E0CF
:101C400082894DF6FF731A408281704700B585B0D6
:101C500001210420FFF706FE01218803FFF702FEA1
:101C60004FF40070ADF8100018208DF81300032019
:101C70008DF8120004A91348FFF7F4FC4FF48060BC
:101C8000ADF8100004208DF8130004A90D48FFF7EB
:101C9000E9FC4FF4E13000900020ADF80400ADF80D
:101CA0000600ADF80800ADF80C000C20ADF80A00F5
:101CB0006946054800F018F801210348FFF7BAFF0C
:101CC00005B000BD00080140003801400246002078
:101CD000B1F5007F00D100BF13880B400BB101208C
:101CE00000E00020704700002DE9F04786B005466F
:101CF0000E460024A24600BFA1460027B08900B1CD
:101D000000BF2F462C8A4CF6FF700440F088044335
:101D10002C82AC894EF6F3100440B0883189084318
:101D2000718908430443AC81AC8A4FF6FF400440FC
:101D3000B0890443AC8201A8FFF7A4FD1F48874285
:101D400002D1DDF810A001E0DDF80CA0A88900F4B4
:101D5000004040B10AEBCA0000EB0A1031684900AC
:101D6000B0FBF1F807E00AEBCA0000EB0A1031689B
:101D70008900B0FBF1F86420B8FBF0F00401200901
:101D8000642101FB1089A88900F4004040B1322091
:101D900000EBC900B0FBF1F000F00700044308E0DD
:101DA000322000EB09106421B0FBF1F000F00F00CD
:101DB00004432C8106B0BDE8F087000000380140E4
:101DC000C1F308028280704700BFFEE70FB4054BE5
:101DD00010B503A9044A029800F01EF810BC5DF883
:101DE00014FB00006D1F00089810002002E008C8D6
:101DF000121F08C1002AFAD170477047002001E085
:101E000001C1121F002AFBD1704700000149086080
:101E1000704700009C1000202DE9FF4F89B09B46C1
:101E20000446002506E025280BD05A460B9990471A
:101E3000641C6D1C20780028F5D10DB02846BDE843
:101E4000F08F0027B8460122474900E0074314F805
:101E5000013F203B02FA03F00842F7D120782E28F8
:101E600019D114F8010F47F004072A280ED06FF09B
:101E70002F022078A0F1300109290CD808EB880145
:101E800002EB410100EB0108641CF2E70A98641CB4
:101E900050F8048B0A9020780028CED0642808D00F
:101EA000692806D075281ED05A460B9990476D1C9C
:101EB00058E00A994FF00A0901C90A91002802DA8C
:101EC00040422D2102E0390504D52B218DF8201048
:101ED000012103E0F90704D02021F7E78A4608AE84
:101EE0000DE00021FAE70A994FF00A0901C90A91A9
:101EF000F7E74946FEF73AFE303106F8011D0028A3
:101F0000F7D1ADEB060000F12009780701D44FF0BE
:101F10000108C84502DDA8EB090000E0002080466A
:101F2000002706E008A85A46C05D0B9990476D1C33
:101F30007F1C5745F6DB04E030205A460B9990474A
:101F40006D1CB8F10001A8F10108F5DC05E016F8F8
:101F5000010B5A460B9990476D1CB9F10001A9F18C
:101F60000109F4DC641C65E70928010070B504462A
:101F70000D46E1B20548FFF723FF00BF802103486B
:101F8000FFF7A4FE0028F9D0204670BD00380140BC
:101F90002DE9F04F89B000245DE0314830F824008D
:101FA0000FFA80F92E4850F824004FEA204A48469C
:101FB000FEF772FD80464FF08741FEF71CFC074696
:101FC0004FF08E41FEF749FC05465046FEF764FD92
:101FD00080464FF08741FEF70EFC07464FF08E41DA
:101FE000FEF73BFC064631463046FEF704FC294628
:101FF00002902846FEF7FFFB01900299FEF7A3FB33
:102000000390FEF784FDCDE9040100F0B7F800224B
:10201000144BCDE90601FEF7D0FC0746FEF78AFD1A
:1020200083465CB94FF08E415846FEF7E4FB074605
:10203000FEF759FD0C4941F824000AE04FF08F41AA
:102040005846FEF7D8FB0746FEF74DFD064941F816
:102050002400601C84B2802C9FDB09B0BDE8F08FA7
:10206000A018002000007040A01A0020FFF7EEFD2D
:10207000FEF7AEFFFFF7BAFAFFF766FAFFF796F83A
:102080006AE022E035480088FEF70FFD81464FF0F8
:102090008B41FEF7E2FB0446FEF739FD07464FF0A1
:1020A00066322F4BFEF717FC0546FEF743FD2D4920
:1020B0000860084600682C492C4A126841F8220042
:1020C0002A480068401C2949086028480068FF2801
:1020D000D8DD26480068B0F5807F24D1002024494F
:1020E000086016E02049224A126851F822004FF099
:1020F0008A41FEF77AFB0446FEF7DCFC00041D492A
:102100001B4A126841F8220019480068401C18490F
:10211000086017480068FF28E4DD4FF48072154915
:102120001548FEF721F8FFF733FF0C480088FEF74B
:10213000BCFC81464FF08B41FEF78FFB0446FEF757
:10214000E6FC07464FF06632054BFEF7C4FB05463A
:10215000FEF7F0FC0349086093E70000141000202C
:1021600066660A4004100020A01000200C10002019
:1021700008100020A0140020A01800202DE9F04134
:1021800006460F46FEF79CFD04000D4618BF0120D1
:10219000284320F00040C0F17F6000F1E040C00F14
:1021A0000ED0301C18BF0120384320F00040C0F191
:1021B0007F6000F1E040C00F04BF0120FFF726FE62
:1021C00020462946BDE8F081E821000800000020F3
:1021D000A0100000C60D0008702E0008A0100020FE
:1021E00080100000FC1D0008120001200501020300
:1021F0000404100B060708090204060800401551E4
:102200000420115DDD213BA3227E180000412D7EBC
:10221000A5412D08200900C000405DDD82E71C318A
:102220001491302011AA2A94126B39460649327C47
:102230000CA8118E23082140200521F779311C219B
:1022400014A154601195C6B13F461A2B1E58EE37A3
:1022500035BEB4C53E20A00D63A97138DF089A28A9
:10226000B7CDC53E78200563A92B1E4C212C200537
:10227000BEB47C0C38A01161AC213B95C6BAF9BA4A
:10228000E571383BA737359C201121F766D756D525
:102290003F3D3BA78E23A811C9CA50200961AC7EDF
:1022A00018AA2AC1C27C2144A1F020111E3BB5040A
:1022B000693E9201C83C2403EB3564090821D02013
:1022C000056C30060E1C2114A1E46011AE24091720
:1022D000AF37D607882E8D0F7E1E5D1B20A40D24E0
:1022E000188C1F1E34F10AB3269015082005140B14
:1022F00060274C212C20057104FB2A382500A40DF1
:10230000C7FD5A2E9D2C1211FE15E7202C20118797
:10231000F05334B2281314480D202602EAE5365053
:10232000251820059CE32B397C2144A5A420114EBF
:10233000D7C53C9320EF198FFB6C2F78D1153E68E1
:102340002530A40DE2CB0F3F641CC61CB8F26833E5
:1023500074200597C1FB3FAC215C2005F0BCEC3F2D
:10236000802548A40DA6B8853FD5133D2282E1DB28
:102370003998201140B1AF3D790FDA244DD9423C54
:102380002EAE423C98256020058EAB823ADC21744B
:10239000A5BC2011B1A71236A906CE2915CA4F3FF8
:1023A00078A66833F42578A40DBCA57630390221CF
:1023B0002C38C3EC3FE02405BCA5CE290C218C2091
:1023C0000578A62026C8A81109BAB13FB1A73D22B9
:1023D00057F976304DB74F3F0420118EABEF19EC13
:1023E000F474325EB2153E2EAE9015E024092DB085
:1023F0003F3D40B112113C21A4A9282411A6B8D612
:10240000072BEC1236C8AADB39F0BC240354296C24
:10241000A80D97C16EFEDCE7B03734A8E5364C1541
:102420003826F56C21BC240578D173F010A811ED85
:10243000A579314ED7EDEB6DDF823A99A56C2F70FF
:1024400024119CE33AE352DBB63B99A5FB2A02EA4E
:1024500019DF282409EDA59A2887F026DB9C21D4D2
:10246000A9944411C7FDDFD363D3AF3D34A8E7205F
:10247000710494D040A80F2B1E140B8CCD94CF72F6
:102480003EC8AA5D1BB82405241850C8CC21EC24F2
:10249000057E1E25C658A8112DB09412AE244AC43C
:1024A00051C8853F5EB28D0FDC24116C308EC1E2C5
:1024B000C4D43F4DB76409EB35B1C070240909BAE3
:1024C00046061E3B2CC0FC2504ADC0032011D03EA7
:1024D0002E019B3F6500363FC9009A3D5B02082DE7
:1024E000100320055F3C88031C2114AD24036011F8
:1024F000D939E205023EF701F43BED038E380E07B1
:1025000020AC0D3F373908313DC002463A7E0548C0
:1025100003200592348E0A4C212C20053433B70B4E
:10252000382D4003AC0DD231DF0C8A3B5104CE363E
:102530009D086C032011022F2B0FB23A1A050535A6
:102540002B0A932D5010502D58032005212C731168
:102550007C2144AD740420113129B413FD38AA063E
:102560005B31410DB327D214942D7003AC0D32268C
:10257000EE151F3872077B2FCA0EB40320052623E1
:102580002118AC215C20059C213719802D8803ACD3
:102590000D0E204B1A5D360109A42BD311D8032050
:1025A00011EB1C6C1C7835C709AF295413561B79E5
:1025B0001D982DA0032005BE19841EDC2174ADFCDE
:1025C00003201188169120A933540BB1254C16EA2B
:1025D000149321F42DB803AC0D4A139222BF321A82
:1025E0000CA923C41720042405051088240C218C71
:1025F0002005610E7E25C82DD003AC0DBB0C7126C5
:10260000E430A40D891FA71A440420116D094C2839
:10261000F42F680E721D121CC4073529E02DE80343
:1026200024051B061A2A3C21A4BD6804241002D8E4
:102630002B0E2EEE0F3519DC1E1C01B22C542DACC6
:1026400004AC0D72FF882D182DB11011173A208C93
:102650000424051DFC282F6C21BC240573FAF22FDD
:10266000102D1804AC0DCAF8B830282B3412BF1244
:10267000E722B004241179F536322D2AF412911094
:102680003524D2F3EF32282D300424052CF2A33365
:102690009C21D4ADD4042411E3EEFF343328731409
:1026A0002E0CC12641EDA535402D4804AC0DA1EB03
:1026B000483633273115FA09FE27F804240565E862
:1026C0007E37CC21EC2405CBE61238582D6004ACC3
:1026D0000D32E5A1382F25AB168D05652A1C052482
:1026E0001108E2B0392B24661755038F2B77E030A1
:1026F0003A702D78042405E9DEAB3AFC2504AD9050
:10270000062811D5DB923B1F22DB18E4FECF2D4FAC
:10271000DAFD3B142D9004AC0DCDD8643C17219309
:1027200019ABFCE42E64052805D3D5213D2C251CCE
:1027300024055CD4783DA02DA804AC0DE8D2C93D99
:10274000041F021B3CF8F930880524110CD05C3EB4
:10275000F81DB81B06F6F831A5CE9D3EB82DC00475
:10276000280541CDD83E5C2534ADAC05241188CA7E
:10277000403FDD1B201D9FF1DF3332C96B3FD02569
:1027800040AC0DE1C7913FCE1AD31D6FEFC634D0D8
:102790000528054EC5CC3F8C254C24050CC4E13FD3
:1027A000E82DF004AC0DCFC2F13FAD18341F16EB8D
:1027B0007D36F4051E657405280D9B17E31FEFE8B1
:1027C0004B3738BFFF3F002D0805280511BEF83FE5
:1027D000BC2564AD18062811D4BBDB3F74153D2120
:1027E000AAE4CF38BFBAC43F182D8C06AC0DAFB9E0
:1027F000A73F5F14E8218EE284393C062805A2B782
:102800005D3FEC257C2805A5B6303F302D3805AC62
:102810000DAFB5FD3E34123B2364DED33AF80728F2
:1028200011D5B3883E1D11E22357DC6D3BF2B24552
:102830003E482D50052C0515B2FC3D1C032594ADDA
:1028400084062C1171B05B3DED0E2C254DD8853CD6
:10285000A9AF033D340325A0AC0DE8AEA53CD40DD3
:10286000CF2551D6033DA8062C057BADDA3B4C03A2
:1028700025AC2805D0AC6D3B782D8005BC0C2BAC6D
:10288000FA3AA10B11276DD2E3CC062811F8AA065B
:102890003A870AAF2785D0453E6AAA8439902D9899
:1028A000052C05E3A9FD387C0325C4ADF0062811ED
:1028B000EBA8E1375208E728CCCCEB3E7BA84B379E
:1028C000A82DB005AC0D12A8B13636078129FBCA78
:1028D000303F14072C0557A76E35AC0325DC2805BF
:1028E00005A7C634C02DC805BC0CBBA61934FF040F
:1028F000B02A72C79C380728113EA6B232E30345BE
:102900002BBAC5C43F0BA6F831D82DE0052C05E045
:10291000A53931DC0325F4AD5C072C11A1A5AF2F3F
:10292000AA016A2C66C2F53F8DA5E42EF4032DF8AA
:1029300005BC0C81A5152E8E00FA2CCAC0FF80079D
:102940002C0581A56A2C0C04290C2C058DA58F2B38
:102950000803100473BEFB48AC0BB02A56FE152EBC
:10296000B0BDF53FA407100CE0A5E72839FD9F2E68
:1029700032BCE1902FFE272003100477BBD4A82F90
:1029800011273C042924ADC807100CBBA62C250137
:10299000FBAF2F56B99CF02F352454042930BC0CC2
:1029A00057A73B23E5F93430F8B76BEC072C051239
:1029B000A83D216C04293C2C057BA83A205003AC8F
:1029C0001100B60F3FEBA8341FAEF739315EB5EBFF
:1029D0003E140A140CE3A9201D93F6B93122B49DCC
:1029E000B02F121C6803140488B372C82F021B9CFA
:1029F000042954AD3408180C2BACDB185FF4B23248
:102A0000CDB1E3102FC417B4042960AC0D7BADAB7E
:102A10001645F32C33B5B0783D58082C05E8AE7355
:102A200014CC04296C2C05A9AF541398031804285E
:102A3000AFC588AC0B341213F11934A9AE853C7CB8
:102A400008180C15B2EE0FFBEF8D34B6ADFDD02F8C
:102A5000CA0EB003180441ADB6E82FA40DFC04293A
:102A600084ADA0081C0CAFB5540BCCED6E35F6ABA5
:102A7000D330032F2B0A14052990AC0DA2B70109FE
:102A8000B6ECDC3529AB303AC4082C05AFB9AA0640
:102A90002C05299C2C05BFBA7E05E003AC110FAABA
:102AA0002B39D4BB51048CEAB136B7A9CF38E8082A
:102AB0002C1111BEF70178E9183712A9123838BF66
:102AC000C900F8032C09C5A8B03765C09BFF5C0599
:102AD00029B4AD0C093C11CFC240FD53E7E137F1F9
:102AE000A77D360CC413FC740519C0AC0D4EC5E6A9
:102AF000FA42E6423874A7A53530092C05E1C78EA5
:102B0000F88C0529CC2C0532C963F72804AC11D305
:102B1000A6533488CA39F623E4FD38A4A6DF33541B
:102B2000092C1141CDE6F315E3583950A6EF32A533
:102B3000CEBFF240042C092CA674320CD098F1BC04
:102B40000529E4AD78092C11E8D24FEFFCE0063AF4
:102B5000D3A5F9305CD42DEED40529F0AC0DD3D536
:102B60000CEDF2DF593AA9A5F22F9C092C05CDD81E
:102B7000CFEAEC0529FC2C054FDAB4E97004AC115E
:102B800085A55A2ED5DB9AE8E1DDFA3A7FA5CF2D4F
:102B9000C0092C11E9DE6DE6DADC473B7FA5B22CDB
:102BA00077E059E588042C0985A5212C08E248E442
:102BB0001C062D1403ADE4092C1132E52DE2D1DA07
:102BC000DA3BA9A5652ACBE624E134062DC40AAC7C
:102BD0000D65E81DE0CED9203CD3A53529080A2C87
:102BE00005A1EB18DE4C062D2C032C0541ED19DD5B
:102BF000B804AC112CA66027E3EE1EDCCDD7A53CB3
:102C000050A6C1262C0A2C112CF231DACFD6E43C86
:102C1000A4A67E25D2F33FD9D0042C09D3A6DA246A
:102C200079F551D87C062D4403AD500A2C11CAF811
:102C30007FD6D8D45B3D74A7E72273FA9BD5E8040E
:102C40002D5003AC0D1DFCBBD4DFD3933DF1A793F6
:102C500021740A2C0572FF06D3AC062D5C032C05EB
:102C60001C0131D20005AC11C5A88C1FC70261D16F
:102C7000F2D1FC3D12A9DC1E980A2C111B06CCCF08
:102C8000FED02D3EB7A9791DC40707CF18052C0922
:102C90000FAAC61C6D0947CEDC062D7403ADBC0A15
:102CA0002C11BB0CD4CC1CCF883E29ABA71A610ECB
:102CB00021CCF4062D8003AC0D051073CB2ECEB1C4
:102CC0003EF6AB3719980D2C054A1324CA0C072D74
:102CD0008C032C05EA1483C94805AC1141AD0917D2
:102CE0008816E8C857CCFD3EB6AD4C16040B2C1127
:102CF000BE19BEC76ECB203FA9AED214561B31C73A
:102D000060052C0928AF1314EB1CA8C63C072DA4A2
:102D100003AD280B2C110E20A7C5A3C95D3FB5B08C
:102D2000D3119C212DC554072DB003AC0D2623B91A
:102D3000C4C1C8783FCDB150104C0B2C053226E0F1
:102D4000C36C072DBC032C05B3277BC39005AC11C6
:102D500088B3060E31291CC303C7A73F22B4410D17
:102D6000700B2C11212C6DC227C6BB3F5EB5B70B73
:102D7000932D1DC2A8052C0900B6F10A022FD3C15C
:102D80009C072DD403AD940B2C11D2314FC176C4C6
:102D9000DB3FF8B79D08343315C1C0052DA40CAC3A
:102DA0000D9234E0C0A1C3E73F56B90E07B80B2C13
:102DB000053F3788C0CC072DEC032C058E3864C046
:102DC000D805AC1177BBB504D93945C0FEC1F83F71
:102DD00032BCED03DC0B2C115F3C19C030C1FD3F50
:102DE000B0BD5B029A3D0BC0F0052C0973BE920189
:102DF000D03E03C0FC072D0404011301101D080080
:102E0000009C090000280B0000920C0000CC0D0073
:102E100000CA0E0000810F0000E80412FD0812BF76
:102E200004122F0812541812362012E22C100665D4
:102E30000A0000CF3C1C07310700009B05500F1211
:102E400004381C09020000AC010000D1630C1241DF
:102E50005B1E036F0F1DAD0E1F007F770F1236181C
:102E6000123420126E1512D82C4364067C610100C6
:0400000508000131BD
:00000001FF
